:020000040800F2
:100000003004002001010008590300087D020008A7
:10001000D5020008590100085D0700080000000033
:100020000000000000000000000000005104000873
:100030005D010008000000005B0300083D050008AA
:100040001B0100081B0100081B0100081B01000820
:100050001B0100081B0100081B0100081B01000810
:100060001B0100081B0100081B0100081B01000800
:100070001B0100081B0100081B0100081B010008F0
:100080001B0100081B0100081B0100081B010008E0
:100090001B0100081B0100081B0100081B010008D0
:1000A0001B0100081B0100081B0100081B010008C0
:1000B000A1050008ED0500081B0100081B01000850
:1000C0001B0100081B0100081B0100081B010008A0
:1000D0001B0100081B0100081B0100081B01000890
:1000E0001B0100081B0100081B010008DFF80CD0F1
:1000F00000F020F800480047C10700083004002045
:100100000648804706480047FEE7FEE7FEE7FEE7B1
:10011000FEE7FEE7FEE7FEE7FEE7FEE74105000833
:10012000ED000008421C10F8011B0029FBD1801AC9
:1001300070470000064C074D06E0E06840F0010300
:1001400094E8070098471034AC42F6D3FFF7D2FF8B
:10015000F80700081808000800BFFEE770472DE9FF
:10016000F04102460025002600200023002400273D
:1001700091F803C00CF00F0591F803C00CF0100CBF
:10018000BCF1000F03D091F802C04CEA050591F8CC
:1001900000C0BCF1000F31D0146800202BE04FF0FC
:1001A000010C0CFA00F3B1F800C00CEA03069E4201
:1001B00020D183004FF00F0C0CFA03F7BC4305FA73
:1001C00003FC4CEA040491F803C0BCF1280F06D1EB
:1001D0004FF0010C0CFA00FCC2F814C00AE091F8D0
:1001E00003C0BCF1480F05D14FF0010C0CFA00FC24
:1001F000C2F810C0401C0828D1D31460B1F800C068
:10020000BCF1FF0F34DD546800202EE000F1080C33
:100210004FF0010808FA0CF3B1F800C00CEA03062D
:100220009E4221D183004FF00F0C0CFA03F7BC4320
:1002300005FA03FC4CEA040491F803C0BCF1280F52
:1002400005D100F1080C08FA0CF8C2F8148091F8F6
:1002500003C0BCF1480F07D100F1080C4FF00108B2
:1002600008FA0CF8C2F81080401C0828CED354605D
:10027000BDE8F081416170470161704700BFFEE752
:1002800008B50121102000F069F84FF40050ADF8D6
:10029000000010208DF8030003208DF8020069464D
:1002A0000148FFF75CFF08BD0010014010B54FF496
:1002B00000510248FFF7E0FF10BD000000100140B0
:1002C00010B54FF400510248FFF7D4FF10BD0000F5
:1002D0000010014000BFFEE700B585B00121880392
:1002E00000F03CF80121042000F038F818208DF8C7
:1002F00013004FF40070ADF8100003208DF81200C9
:1003000004A91348FFF72BFF04208DF81300000207
:10031000ADF8100004A90E48FFF721FF4FF4165066
:1003200000900020ADF80C000C20ADF80A00002071
:10033000ADF80800ADF80600ADF8040069460548C0
:1003400000F09CF90121034800F08CF905B000BDD4
:1003500000080140003801407047704729B1064A43
:1003600092690243044B9A6104E0034A9269824312
:10037000014B9A61704700000010024030B5002127
:100380000022002400232D4D6D6805F00C0121B1E1
:10039000042905D0082923D105E0294D056022E074
:1003A000274D05601FE0254D6D6805F47012234D43
:1003B0006D6805F48034022505EB92421CB9214D8D
:1003C000554305600BE01D4D6D6805F400351DB10A
:1003D0001C4D5543056002E0194D5543056002E090
:1003E000174D056000BF00BF144D6D6805F0F001AA
:1003F0000909154D6B5C0568DD4045600F4D6D6862
:1004000005F4E061090A104D6B5C4568DD408560CC
:100410000A4D6D6805F46051C90A0B4D6B5C456867
:10042000DD40C560054D6D6805F44041890B074D01
:100430006B5CC568B5FBF3F5056130BD001002408B
:1004400000127A0000093D0000000020100000208A
:10045000704710B500F002F810BD00000CB5002088
:10046000019000903348006840F4803031490860C2
:1004700000BF3048006800F4003000900198401C34
:100480000190009818B90198B0F5A06FF1D12948F2
:10049000006800F4003010B10120009001E000205D
:1004A00000900098012843D12348006840F01000D4
:1004B000214908600846006820F0030008600846EB
:1004C000006840F0020008601A4840681949486016
:1004D0000846406848600846406840F480604860CC
:1004E0000846406820F47C1048600846406840F4A4
:1004F000E81048600846006840F08070086000BF5F
:100500000C48006800F000700028F9D009484068E5
:1005100020F00300074948600846406840F00200A8
:10052000486000BF0348406800F00C000828F9D17B
:100530000CBD000000100240002002407047000087
:1005400010B51348006840F00100114908600846E2
:100550004068104908400E494860084600680E4946
:1005600008400B4908600846006820F480200860B5
:100570000846406820F4FE0048604FF41F00886081
:10058000FFF767FF4FF000600449086010BD0000EE
:10059000001002400000FFF8FFFFF6FE08ED00E04B
:1005A00010B50121880700F04CF8E0B10E48006852
:1005B00010B1012812D108E0FFF782FE0A48006856
:1005C00080F001000849086008E0FFF76FFE064868
:1005D000006880F001000449086000BF00BF0121ED
:1005E000880700F02BF810BD2800002010B501216D
:1005F000104800F026F8E0B10F48006810B101285B
:1006000012D108E0FFF75CFE0B48006880F00100A3
:100610000949086008E0FFF749FE0748006880F0D4
:1006200001000549086000BF00BF0121014800F03A
:1006300005F810BD0004004024000020CA430282D7
:10064000704730B50246002000230024158A05EAD1
:100650000103958905EA010413B10CB1012000E002
:10066000002030BD21B1828942F40052828104E031
:1006700082894DF6FF731A40828170472DE9F04759
:1006800086B005460E460024A24600BFA1460027BC
:10069000B08900B100BF2F462C8A4CF6FF70044091
:1006A000F08804432C82AC894EF6F3100440B088E5
:1006B00031890843718908430443AC81AC8A4FF601
:1006C000FF400440B0890443AC8201A8FFF756FE06
:1006D0001F48874202D1DDF810A001E0DDF80CA030
:1006E000A88900F4004040B10AEBCA0000EB0A10F0
:1006F00031684900B0FBF1F807E00AEBCA0000EBF3
:100700000A1031688900B0FBF1F86420B8FBF0F002
:1007100004012009642101FB1089A88900F400402C
:1007200040B1322000EBC900B0FBF1F000F007004F
:10073000044308E0322000EB09106421B0FBF1F023
:1007400000F00F0004432C8106B0BDE8F0870000E4
:1007500000380140C1F308028280704700BFFEE705
:1007600002E008C8121F08C1002AFAD1704770477A
:10077000002001E001C1121F002AFBD17047014691
:1007800042F228324A434FF0E0235A6100229A6134
:100790001A46126942F001021A6100BF4FF0E022CE
:1007A0001069020C002AF9D04FF0E022126922F001
:1007B00001024FF0E0231A6100229A6170470000A5
:1007C000FFF75EFDFFF77CFDFFF786FD002408E0E4
:1007D0000520FFF7D4FF0648015D0648FFF7BAFF82
:1007E000641C0348FFF79EFCA042F1D800BFFEE75F
:1007F0001400002000380140180800080000002004
:100800002C00000060070008440800082C000020AD
:100810000404000070070008000000000102030447
:1008200001020304060708090204060848656C6C07
:100830006F20776F726C64210000000000000000E0
:0408400000000000B4
:04000005080000ED02
:00000001FF
