:020000040800F2
:100000006004002001010008810300087D0200084F
:10001000D5020008590100084F090008000000003F
:1000200000000000000000000000000001050008C2
:100030005D0100080000000009040008ED0500084B
:100040001B0100081B0100081B0100081B01000820
:100050001B0100081B0100081B0100081B01000810
:100060001B0100081B0100081B0100081B01000800
:100070001B0100081B0100081B0100081B010008F0
:100080001B0100081B0100081B0100081B010008E0
:100090001B0100081B0100081B0100081B010008D0
:1000A0001B0100081B0100081B0100081B010008C0
:1000B000510600089D0600081B0100081B010008EE
:1000C0001B0100081B0100081B0100081B010008A0
:1000D0001B010008150700081B0100081B01000890
:1000E0001B0100081B0100081B010008DFF80CD0F1
:1000F00000F020F800480047790A0008600400205A
:100100000648804706480047FEE7FEE7FEE7FEE7B1
:10011000FEE7FEE7FEE7FEE7FEE7FEE7F105000883
:10012000ED000008421C10F8011B0029FBD1801AC9
:1001300070470000064C074D06E0E06840F0010300
:1001400094E8070098471034AC42F6D3FFF7D2FF8B
:10015000A40A0008C40A000800BFFEE770472DE9A2
:10016000F04102460025002600200023002400273D
:1001700091F803C00CF00F0591F803C00CF0100CBF
:10018000BCF1000F03D091F802C04CEA050591F8CC
:1001900000C0BCF1000F31D0146800202BE04FF0FC
:1001A000010C0CFA00F3B1F800C00CEA03069E4201
:1001B00020D183004FF00F0C0CFA03F7BC4305FA73
:1001C00003FC4CEA040491F803C0BCF1280F06D1EB
:1001D0004FF0010C0CFA00FCC2F814C00AE091F8D0
:1001E00003C0BCF1480F05D14FF0010C0CFA00FC24
:1001F000C2F810C0401C0828D1D31460B1F800C068
:10020000BCF1FF0F34DD546800202EE000F1080C33
:100210004FF0010808FA0CF3B1F800C00CEA03062D
:100220009E4221D183004FF00F0C0CFA03F7BC4320
:1002300005FA03FC4CEA040491F803C0BCF1280F52
:1002400005D100F1080C08FA0CF8C2F8148091F8F6
:1002500003C0BCF1480F07D100F1080C4FF00108B2
:1002600008FA0CF8C2F81080401C0828CED354605D
:10027000BDE8F081416170470161704700BFFEE752
:1002800008B50121102000F0C1F84FF40050ADF87E
:10029000000010208DF8030003208DF8020069464D
:1002A0000148FFF75CFF08BD0010014010B54FF496
:1002B00000510248FFF7E0FF10BD000000100140B0
:1002C00010B54FF400510248FFF7D4FF10BD0000F5
:1002D0000010014000BFFEE700B587B00121880390
:1002E00000F094F80121042000F090F818208DF817
:1002F0001B004FF40070ADF8180003208DF81A00B1
:1003000006A91D48FFF72BFF04208DF81B000002F3
:10031000ADF8180006A91848FFF721FF4FF4165052
:1003200002900020ADF814000C20ADF8120000205F
:10033000ADF81000ADF80E00ADF80C0002A90F48A2
:1003400000F090FA012240F225510C4800F065FAC5
:1003500025208DF8040001208DF8070002208DF87B
:1003600005008DF8060001A800F00CF801210348F3
:1003700000F010FA07B000BD00080140003801404D
:100380007047000070B5002100230F22C47804B329
:10039000154C246804F4E064C4F5E064210AC1F15A
:1003A0000403CA40447804FA03F1847814402143DA
:1003B00009010E4C0678A155047804F01F050124AC
:1003C000AC4005786D11AD0005F1E025C5F80041A0
:1003D00009E0047804F01F050124AC40044D0678C0
:1003E000761145F8264070BD0CED00E000E400E019
:1003F00080E100E002490143024A116070470000B9
:100400000000FA050CED00E07047000029B1064A33
:1004100092690243044B9A6104E0034A9269824361
:10042000014B9A61704700000010024030B5002176
:100430000022002400232D4D6D6805F00C0121B130
:10044000042905D0082923D105E0294D056022E0C3
:10045000274D05601FE0254D6D6805F47012234D92
:100460006D6805F48034022505EB92421CB9214DDC
:10047000554305600BE01D4D6D6805F400351DB159
:100480001C4D5543056002E0194D5543056002E0DF
:10049000174D056000BF00BF144D6D6805F0F001F9
:1004A0000909154D6B5C0568DD4045600F4D6D68B1
:1004B00005F4E061090A104D6B5C4568DD4085601C
:1004C0000A4D6D6805F46051C90A0B4D6B5C4568B7
:1004D000DD40C560054D6D6805F44041890B074D51
:1004E0006B5CC568B5FBF3F5056130BD00100240DB
:1004F00000127A0000093D000000002010000020DA
:10050000704710B500F002F810BD00000CB50020D7
:10051000019000903348006840F480303149086011
:1005200000BF3048006800F4003000900198401C83
:100530000190009818B90198B0F5A06FF1D1294841
:10054000006800F4003010B10120009001E00020AC
:1005500000900098012843D12348006840F0100023
:10056000214908600846006820F00300086008463A
:10057000006840F0020008601A4840681949486065
:100580000846406848600846406840F4806048601B
:100590000846406820F47C1048600846406840F4F3
:1005A000E81048600846006840F08070086000BFAE
:1005B0000C48006800F000700028F9D00948406835
:1005C00020F00300074948600846406840F00200F8
:1005D000486000BF0348406800F00C000828F9D1CB
:1005E0000CBD0000001002400020024070470000D7
:1005F00010B51348006840F0010011490860084632
:100600004068104908400E494860084600680E4995
:1006100008400B4908600846006820F48020086004
:100620000846406820F4FE0048604FF41F008860D0
:10063000FFF767FF4FF000600449086010BD00003D
:10064000001002400000FFF8FFFFF6FE08ED00E09A
:1006500010B50121880700F04CF8E0B10E480068A1
:1006600010B1012812D108E0FFF72AFE0A480068FD
:1006700080F001000849086008E0FFF717FE06480F
:10068000006880F001000449086000BF00BF01213C
:10069000880700F02BF810BD4C00002010B5012198
:1006A000104800F026F8E0B10F48006810B10128AA
:1006B00012D108E0FFF704FE0B48006880F001004B
:1006C0000949086008E0FFF7F1FD0748006880F07D
:1006D00001000549086000BF00BF0121014800F08A
:1006E00005F810BD0004004048000020CA43028203
:1006F000704730B50246002000230024158A05EA21
:100700000103958905EA010413B10CB1012000E051
:10071000002030BD10B540F22551084800F053F8D4
:1007200000B910BD054800F009F90549087000201E
:100730004870084600F016F800BFF2E700380140A4
:100740005000002010B5044600BF8021044800F08E
:100750002DF80028F9D02146014800F0F4F810BD2A
:100760000038014070B505462846FFF7DBFC064619
:10077000002403E0285DFFF7E5FF641CB442F9DBC9
:1007800000BF4021024800F011F80028F9D070BDE8
:100790000038014021B1828942F40052828104E094
:1007A00082894DF6FF731A4082817047024600200D
:1007B000B1F5007F00D100BF13880B400BB10120C1
:1007C00000E00020704770B5024600240023002599
:1007D000002040F66A16B14200D100BFC1F34215B5
:1007E00001F01F03012606FA03F3012D02D19689B9
:1007F000334006E0022D02D1168A334001E0968A8A
:1008000033400C12012606FA04F41688344013B162
:100810000CB1012000E0002070BDF0B503460024BB
:1008200000260025002040F66A17B94200D100BF1B
:100830001846C1F3421401F01F06012707FA06F516
:10084000012C01D10C3004E0022C01D1103000E069
:1008500014301AB107682F43076002E00768AF43FE
:100860000760F0BD2DE9F04786B005460E4600242E
:10087000A24600BFA1460027B08900B100BF2F46A5
:100880002C8A4CF6FF700440F08804432C82AC891B
:100890004EF6F3100440B08831890843718908434B
:1008A0000443AC81AC8A4FF6FF400440B089044356
:1008B000AC8201A8FFF7BAFD1F48874202D1DDF8DC
:1008C00010A001E0DDF80CA0A88900F4004040B1C0
:1008D0000AEBCA0000EB0A1031684900B0FBF1F8DE
:1008E00007E00AEBCA0000EB0A1031688900B0FB90
:1008F000F1F86420B8FBF0F004012009642101FB49
:100900001089A88900F4004040B1322000EBC900F2
:10091000B0FBF1F000F00700044308E0322000EBE8
:1009200009106421B0FBF1F000F00F0004432C81AA
:1009300006B0BDE8F0870000003801400146888815
:10094000C0F308007047C1F308028280704700BFFF
:10095000FEE700000FB4054B10B503A9044A029846
:1009600000F017F810BC5DF814FB0000690A0008DD
:100970005800002002E008C8121F08C1002AFAD15E
:1009800070477047002001E001C1121F002AFBD10F
:1009900070472DE9F84F994692468846054600274C
:1009A00006E025280AD051464A4690476D1C7F1C18
:1009B00028780028F5D13846BDE8F88F002315F8CF
:1009C000011F18462E2915D115F8011F04232A29C5
:1009D0000DD06FF02F022978A1F13004092C09D82D
:1009E00000EB800002EB400008446D1CF3E758F870
:1009F000040B6D1C2A78002ADDD0632A07D0732AE5
:100A00000FD0104651464A4690477F1C2AE018F8FE
:100A1000042B8DF8002000218DF801106E46012175
:100A200003E058F8046B4FF0FF315A074FF0000411
:100A300001D409E0641C84420BDA8C42FADB325D9B
:100A4000002AF7D105E0641C8C42FCDB305D0028F5
:100A5000F9D1274404E016F8010B51464A46904765
:100A6000641EF8D26D1CA3E770B504460D46E0B2D3
:100A7000FFF768FE204670BD4FF4A060FFF7BAFC98
:100A8000FFF7FEFBFFF71CFCFFF726FC024903A063
:100A9000FFF760FF00BFFEE71400002025730D0A7A
:100AA00000000000C40A0008000000205C000000F4
:100AB00074090008200B00085C00002004040000FA
:100AC000840900080000000001020304010203047D
:100AD000060708090204060848656C6C6F20776FEA
:100AE000726C64210D0A2020A1AAA1AA73656E74FC
:100AF000206279204C524C3532206F6E2046656260
:100B000020313774682C203230323200000000006F
:100B100000000000696E6974000000000000000021
:04000005080000ED02
:00000001FF
