:020000040800F2
:1000000058040020010100089D030008990200081F
:10001000F1020008750100083F0900080000000017
:100020000000000000000000000000001D050008A6
:1000300079010008000000002504000809060008F6
:100040001B0100081B0100081B0100081B01000820
:100050001B0100081B0100081B0100081B01000810
:100060001B0100081B0100081B0100081B01000800
:100070001B0100081B0100081B0100081B010008F0
:100080001B0100081B0100081B0100081B010008E0
:100090001B0100081B0100081B0100081B010008D0
:1000A0001B0100081B0100081B0100081B010008C0
:1000B0006D060008B90600081B0100081B010008B6
:1000C0001B0100081B0100081B0100081B010008A0
:1000D0001B010008310700081B0100081B01000874
:1000E0001B0100081B0100081B010008DFF80CD0F1
:1000F00000F02EF800480047A10B0008580400202B
:100100000648804706480047FEE7FEE7FEE7FEE7B1
:10011000FEE7FEE7FEE7FEE7FEE7FEE70D06000866
:10012000ED00000830B50B460146002020220124D6
:1001300009E021FA02F59D4205D303FA02F5491BB5
:1001400004FA02F52844151EA2F10102F1DC30BDCB
:10015000064C074D06E0E06840F0010394E8070014
:1001600098471034AC42F6D3FFF7C4FF080C0008E0
:10017000280C000800BFFEE770472DE9F041024659
:1001800000250026002000230024002791F803C04A
:100190000CF00F0591F803C00CF0100CBCF1000F2F
:1001A00003D091F802C04CEA050591F800C0BCF1FB
:1001B000000F31D0146800202BE04FF0010C0CFA36
:1001C00000F3B1F800C00CEA03069E4220D1830080
:1001D0004FF00F0C0CFA03F7BC4305FA03FC4CEA92
:1001E000040491F803C0BCF1280F06D14FF0010CB4
:1001F0000CFA00FCC2F814C00AE091F803C0BCF18C
:10020000480F05D14FF0010C0CFA00FCC2F810C0E9
:10021000401C0828D1D31460B1F800C0BCF1FF0F16
:1002200034DD546800202EE000F1080C4FF0010886
:1002300008FA0CF3B1F800C00CEA03069E4221D183
:1002400083004FF00F0C0CFA03F7BC4305FA03FCD4
:100250004CEA040491F803C0BCF1280F05D100F169
:10026000080C08FA0CF8C2F8148091F803C0BCF12D
:10027000480F07D100F1080C4FF0010808FA0CF8FC
:10028000C2F81080401C0828CED35460BDE8F0812D
:10029000416170470161704700BFFEE708B5012169
:1002A000102000F0C1F84FF40050ADF8000010200D
:1002B0008DF8030003208DF8020069460148FFF71E
:1002C0005CFF08BD0010014010B54FF4005102481A
:1002D000FFF7E0FF10BD00000010014010B54FF423
:1002E00000510248FFF7D4FF10BD0000001001408C
:1002F00000BFFEE700B587B00121880300F094F845
:100300000121042000F090F818208DF81B004FF414
:100310000070ADF8180003208DF81A0006A91D48DA
:10032000FFF72BFF04208DF81B000002ADF818002A
:1003300006A91848FFF721FF4FF41650029000203D
:10034000ADF814000C20ADF812000020ADF810003C
:10035000ADF80E00ADF80C0002A90F4800F07AFAD3
:10036000012240F225510C4800F04FFA25208DF86B
:10037000040001208DF8070002208DF805008DF89B
:10038000060001A800F00CF80121034800F0FAF97A
:1003900007B000BD00080140003801407047000070
:1003A00070B5002100230F22C47804B3154C2468D3
:1003B00004F4E064C4F5E064210AC1F10403CA4016
:1003C000447804FA03F184781440214309010E4C67
:1003D0000678A155047804F01F050124AC40057887
:1003E0006D11AD0005F1E025C5F8004109E0047884
:1003F00004F01F050124AC40044D0678761145F841
:10040000264070BD0CED00E000E400E080E100E07B
:1004100002490143024A1160704700000000FA05DA
:100420000CED00E07047000029B1064A92690243D2
:10043000044B9A6104E0034A92698243014B9A613A
:10044000704700000010024030B500210022002457
:1004500000232D4D6D6805F00C0121B1042905D054
:10046000082923D105E0294D056022E0274D0560CC
:100470001FE0254D6D6805F47012234D6D6805F47D
:100480008034022505EB92421CB9214D554305608D
:100490000BE01D4D6D6805F400351DB11C4D554335
:1004A000056002E0194D5543056002E0174D0560F7
:1004B00000BF00BF144D6D6805F0F0010909154D2E
:1004C0006B5C0568DD4045600F4D6D6805F4E061CB
:1004D000090A104D6B5C4568DD4085600A4D6D680A
:1004E00005F46051C90A0B4D6B5C4568DD40C56081
:1004F000054D6D6805F44041890B074D6B5CC5687F
:10050000B5FBF3F5056130BD0010024000127A0022
:1005100000093D000000002010000020704710B5C9
:1005200000F002F810BD00000CB500200190009012
:100530003348006840F480303149086000BF3048DB
:10054000006800F4003000900198401C0190009871
:1005500018B90198B0F5A06FF1D12948006800F4EE
:10056000003010B10120009001E0002000900098C0
:10057000012843D12348006840F010002149086059
:100580000846006820F0030008600846006840F054
:10059000020008601A4840681949486008464068E7
:1005A00048600846406840F48060486008464068FB
:1005B00020F47C1048600846406840F4E810486029
:1005C0000846006840F08070086000BF0C48006872
:1005D00000F000700028F9D00948406820F00300BE
:1005E000074948600846406840F00200486000BF84
:1005F0000348406800F00C000828F9D10CBD000049
:1006000000100240002002407047000010B513485F
:10061000006840F001001149086008464068104930
:1006200008400E494860084600680E4908400B49DA
:1006300008600846006820F480200860084640688A
:1006400020F4FE0048604FF41F008860FFF767FF4A
:100650004FF000600449086010BD00000010024027
:100660000000FFF8FFFFF6FE08ED00E010B50121E5
:10067000880700F04CF8E0B10E48006810B101287E
:1006800012D108E0FFF72AFE0A48006880F0010056
:100690000849086008E0FFF717FE0648006880F088
:1006A00001000449086000BF00BF0121880700F075
:1006B0002BF810BD4C00002010B50121104800F0AF
:1006C00026F8E0B10F48006810B1012812D108E007
:1006D000FFF704FE0B48006880F00100094908603C
:1006E00008E0FFF7F1FD0748006880F001000549C8
:1006F000086000BF00BF0121014800F005F810BDEF
:100700000004004048000020CA430282704730B510
:100710000246002000230024158A05EA010395897A
:1007200005EA010413B10CB1012000E0002030BD46
:1007300010B50A480068401C0849086040F225517D
:10074000074800F038F800B910BD054800F0EEF891
:100750000446E0B200F006F800BFF5E750000020C4
:100760000038014010B5044600BF8021044800F065
:1007700015F80028F9D02146014800F0DCF810BD3A
:100780000038014021B1828942F40052828104E0A4
:1007900082894DF6FF731A4082817047024600201D
:1007A000B1F5007F00D100BF13880B400BB10120D1
:1007B00000E00020704770B50246002400230025A9
:1007C000002040F66A16B14200D100BFC1F34215C5
:1007D00001F01F03012606FA03F3012D02D19689C9
:1007E000334006E0022D02D1168A334001E0968A9A
:1007F00033400C12012606FA04F41688344013B173
:100800000CB1012000E0002070BDF0B503460024CB
:1008100000260025002040F66A17B94200D100BF2B
:100820001846C1F3421401F01F06012707FA06F526
:10083000012C01D10C3004E0022C01D1103000E079
:1008400014301AB107682F43076002E00768AF430E
:100850000760F0BD2DE9F04786B005460E4600243E
:10086000A24600BFA1460027B08900B100BF2F46B5
:100870002C8A4CF6FF700440F08804432C82AC892B
:100880004EF6F3100440B08831890843718908435B
:100890000443AC81AC8A4FF6FF400440B089044366
:1008A000AC8201A8FFF7D0FD1F48874202D1DDF8D6
:1008B00010A001E0DDF80CA0A88900F4004040B1D0
:1008C0000AEBCA0000EB0A1031684900B0FBF1F8EE
:1008D00007E00AEBCA0000EB0A1031688900B0FBA0
:1008E000F1F86420B8FBF0F004012009642101FB59
:1008F0001089A88900F4004040B1322000EBC90003
:10090000B0FBF1F000F00700044308E0322000EBF8
:1009100009106421B0FBF1F000F00F0004432C81BA
:1009200006B0BDE8F0870000003801400146888825
:10093000C0F308007047C1F308028280704700BF0F
:10094000FEE700000FB4054B10B503A9044A029856
:1009500000F018F810BC5DF814FB00008F0B0008C5
:100960005400002002E008C8121F08C1002AFAD172
:1009700070477047002001E001C1121F002AFBD11F
:10098000704700002DE9FF4F8BB09A460F46054691
:10099000002606E025280BD052460D9990476D1C85
:1009A000761C28780028F5D10FB03046BDE8F08FCE
:1009B0000024A0460122604900E0044315F8013FED
:1009C000203B02FA03F00842F7D128782E2817D1ED
:1009D00015F8010F44F004042A280ED06FF02F02FE
:1009E0002878A0F1300109290AD808EB880102EB28
:1009F000410100EB01086D1CF2E757F8048B6D1CF8
:100A0000287869283ED006DC0028CDD063280BD09A
:100A1000642804D136E0732810D075284BD0524694
:100A20000D999047761C85E017F8040B8DF80000AF
:100A300000208DF80100E946012003E057F8049BEF
:100A40004FF0FF3061074FF0000401D40AE0641C4E
:100A500044450DDA8442FADB19F804100029F6D176
:100A600006E0641C8442FCDB19F804100029F8D16C
:100A7000264404E019F8010B52460D999047641E74
:100A8000F8D257E001CF4FF00A0B002802DA4042BB
:100A90002D2102E0210504D52B218DF82410012100
:100AA00003E0E10705D02021F7E70DF120090891C7
:100AB0000CE00021F9E701CF4FF00A0BF9E75946A6
:100AC000FFF730FB01F1300209F8012D0028F6D1C3
:100AD000ADEB090000F1200B600701D44FF00108D5
:100AE000D84502DDA8EB0B0000E000208046002482
:100AF00006E009A85246005D0D999047641C761CDB
:100B000008988442F5DB04E0302052460D99904766
:100B1000761CB8F10001A8F10108F5DC05E019F830
:100B2000010B52460D999047761CBBF10001ABF1C9
:100B3000010BF4DC6D1C34E7092801004FF0E020C4
:100B4000006920F004004FF0E02108617047014681
:100B500042F228324A434FF0E0235A6100229A6160
:100B60001A46126942F001021A6100BF4FF0E022FA
:100B70001069020C002AF9D04FF0E022126922F02D
:100B800001024FF0E0231A6100229A61704770B5AC
:100B900004460D46E0B2FFF7E5FD204670BD0000BB
:100BA0004FF4A060FFF734FCFFF778FBFFF796FBEC
:100BB000FFF7C4FFFFF79EFB09490AA0FFF7C2FE3B
:100BC000002404E04FF47A70FFF7C1FF641C0A2C84
:100BD000F8DB0648016806A0FFF7B4FE00BFFEE799
:100BE0001400002025730D0A0000000050000020B2
:100BF000256420B4CEBDF8C8EBD6D0B6CFB7FECEB4
:100C0000F1BAAFCAFD0D0A00280C00080000002050
:100C10005800000064090008800C000858000020FB
:100C20000004000074090008000000000102030431
:100C300001020304060708090204060848656C6CF3
:100C40006F20776F726C64210D0A2020A1AAA1AADF
:100C500073656E74206279204C524C3532206F6E71
:100C60002046656220313774682C203230323200E1
:100C70000000000000000000000000000000000074
:04000005080000ED02
:00000001FF
