:020000040800F2
:10000000804C002001010008190A0008DD070008E3
:100010006D090008B9060008BF10000800000000C4
:100020000000000000000000000000000D0C0008AF
:10003000BD06000800000000D90A0008F90C0008FD
:100040001B0100081B0100081B0100081B01000820
:100050001B0100081B0100081B0100081B01000810
:100060001B0100081B0100081B0100081B01000800
:100070001B0100081B0100081B0100081B010008F0
:100080001B0100081B0100081B0100081B010008E0
:100090001B0100081B0100081B0100081B010008D0
:1000A0001B0100081B0100081B0100081B010008C0
:1000B0005D0D00081B0100081B0100081B01000862
:1000C0001B0100081B0100081B0100081B010008A0
:1000D0001B0100088D0E00081B0100081B01000811
:1000E0001B0100081B0100081B010008DFF80CD0F1
:1000F00000F01EFA004800477D1B0008804C0020DD
:100100000648804706480047FEE7FEE7FEE7FEE7B1
:10011000FEE7FEE7FEE7FEE7FEE7FEE7FD0C000870
:10012000ED000008421C10F8011B0029FBD1801AC9
:10013000704730B50B46014600202022012409E01B
:1001400021FA02F59D4205D303FA02F5491B04FA90
:1001500002F52844151EA2F10102F1DC30BD2DE9A3
:10016000F05F0546002092469B468846064681463B
:1001700040241BE0284641464746224600F0F9F954
:1001800053465A46C01A914110D31146184622468A
:1001900000F0E0F92D1A67EB01084F4622460120D6
:1001A000002100F0D7F917EB00094E41201EA4F101
:1001B0000104DFDC484631462A464346BDE8F09F4D
:1001C0002DE9FE4F804681EA0300C00F0C460090E7
:1001D00021F0004123F00045B8EB0200A94105D20F
:1001E0004046214690461C460B46024623F00040FE
:1001F000104347D0270DC7F30A00C3F30A510290FA
:10020000401A019040286BDAC3F3130040F4801BBE
:100210000098924620B10023D2EB030A63EB0B0B4C
:1002200001985946C0F14002504600F093F9064645
:100230000D4650465946019A00F0ABF910EB080004
:100240006141002487EA115284EAE7731A4340D0DF
:10025000009A62B3019A012A4FEA075215DC001B8B
:1002600061EB02014FF0004202EA0752CDE9004281
:10027000001C41F5801132462B4600F0ABF903B06B
:10028000BDE8F08F40462146F9E7001B61EB020113
:10029000001C41F5801300185B412018A2F50017DF
:1002A00047EB030140EAD570B6196D4111E06D08C6
:1002B0004FEA360645EAC0754FEA0752001B61EB6C
:1002C0000201001C41F5801149084FEA3000001975
:1002D000514132462B4603B0BDE8F04F00F06BB9F8
:1002E0000098012240000023D0EB020263EBE07390
:1002F000009821464FEAE074B8EB000061EB04017E
:10030000E9E783F000435BE781F0004158E72DE91E
:10031000FE4F81EA030404F0004421F00041009400
:100320004FF0000B23F0004350EA01045ED052EA84
:1003300003045BD0C3F30A54C1F30A552C44A4F25E
:10034000F3340194A0FB0254C1F3130141F4801172
:10035000C3F3130343F4801301FB024400FB034E79
:10036000840A970A44EA815447EA8357A4FB076842
:1003700002958D0A05FB07854FEA932C04FB0C546C
:100380002705029D4FEA065847EA1637B5EB0805E0
:100390006EEB070C870E920E47EA811742EA831232
:1003A000A7FB0201B6EB0B0164EB00042B0D43EA43
:1003B0000C335E1844EB1C50DA465146E7FB020151
:1003C000C5F313044FEA0B3343EA14534FEA0432E4
:1003D000019C43EA0603A4F10C040294009CCDE9BD
:1003E00000B400F0F7F803B0BDE8F08F002001463C
:1003F000F9E72DE9F04D81EA030404F0004B21F008
:10040000004514464FF0000A23F0004150EA05026F
:1004100020D054EA01021DD0C5F30A570246C5F3A5
:100420001303C1F31300C1F30A5640F4801543F4DB
:100430008013A7EB0608101BD64608F2FD3873EBB5
:10044000050002D308F1010801E092185B41B8F100
:10045000000F03DA00200146BDE8F08D00204FF4C4
:100460008011064684460EE0171B73EB050705D383
:10047000121B63EB050306434CEA010C49084FEAE3
:10048000300092185B4150EA0107EDD152EA0300B7
:1004900012D082EA040083EA0501084305D0101B4C
:1004A000AB4106D20122002306E000224FF00043B8
:1004B00002E06FF0010253101AEB06004CEB0851FA
:1004C00010EB0A0041EB0B01BDE8F04D00F073B8F2
:1004D000C1F30A52C1F3130140F2FF3341F480111A
:1004E0009A4202DA00200146704740F233439A42B2
:1004F000A2F2334202DC524200F03BB800F02AB8CC
:1005000030B5041E71F1000404DB4FF0004440429A
:1005100064EB0101141E73F1000405DB1C464FF06F
:100520000043524263EB0403994208BF904230BD3E
:10053000064C074D06E0E06840F0010394E8070030
:1005400098471034AC42F6D3FFF7D4FD9C22000844
:10055000BC220008202A04DB203A00FA02F1002025
:1005600070479140C2F1200320FA03F319439040F1
:100570007047202A04DB203A21FA02F0002170475C
:1005800021FA02F3D040C2F12002914008431946FB
:100590007047202A06DBCB17203A41FA02F043EAE3
:1005A000E07306E041FA02F3D040C2F1200291402C
:1005B00008431946704710B5141E73F1000408DA99
:1005C000401C41F1000192185B411A4301D120F017
:1005D000010010BD2DE9F04D92469B4611B1B1FAD4
:1005E00081F202E0B0FA80F220329046FFF7B2FFCB
:1005F00004460F4640EA0A0041EA0B0153465A46B8
:10060000084313D0114653EA010019D0C8F1400243
:100610005046FFF7AEFF05460E4650465946424645
:10062000FFF798FF084305D0012004E02046394633
:10063000BDE8F08D0020054346EAE0762C433743C1
:100640000A986305E40AA0EB08000022FD0A44EAC8
:1006500047540A3002D500200146E9E70105101988
:100660006941DDE9084500196941BDE8F04DA2E79F
:1006700000200D49096841B10B490968491E0A4A21
:1006800011600A4A52F8210008E009490A6809681D
:10069000491C074B1960074901EB0210002141601A
:1006A0000160C160816070471C0000200042002092
:1006B000200000200040002000BFFEE770472DE929
:1006C000F0410246002500260020002300240027D8
:1006D00091F803C00CF00F0591F803C00CF0100C5A
:1006E000BCF1000F03D091F802C04CEA050591F867
:1006F00000C0BCF1000F31D0146800202BE04FF097
:10070000010C0CFA00F3B1F800C00CEA03069E429B
:1007100020D183004FF00F0C0CFA03F7BC4305FA0D
:1007200003FC4CEA040491F803C0BCF1280F06D185
:100730004FF0010C0CFA00FCC2F814C00AE091F86A
:1007400003C0BCF1480F05D14FF0010C0CFA00FCBE
:10075000C2F810C0401C0828D1D31460B1F800C002
:10076000BCF1FF0F34DD546800202EE000F1080CCE
:100770004FF0010808FA0CF3B1F800C00CEA0306C8
:100780009E4221D183004FF00F0C0CFA03F7BC43BB
:1007900005FA03FC4CEA040491F803C0BCF1280FED
:1007A00005D100F1080C08FA0CF8C2F8148091F891
:1007B00003C0BCF1480F07D100F1080C4FF001084D
:1007C00008FA0CF8C2F81080401C0828CED35460F8
:1007D000BDE8F081416170470161704700BFFEE7ED
:1007E00008B50121102000F089F94FF40050ADF850
:1007F000000010208DF8030003208DF802006946E8
:100800000148FFF75CFF08BD0010014010B54FF430
:1008100000510248FFF7E0FF10BD0000001001404A
:1008200010B54FF400510248FFF7D4FF10BD00008F
:100830000010014070B505460E462C6800E0646863
:10084000301EA6F10106FAD1206818B1D4E90010D3
:10085000486002E0286840682860606810B1D4E908
:1008600000010860204600F0C3F9A868401EA86097
:10087000A06870BD10B50446FFF7FAFE6060206006
:100880004FF080406168C860616888600020A060A7
:1008900010BD00002DE9F04106460F469046356830
:1008A000FFF7E6FE0446A76007EB0800E06000E003
:1008B0006D68A868A1688842FAD9286868B1A068FC
:1008C0002968C968884208D213A001F003FB286890
:1008D00000F0E6F8204600F0E3F8A868E1688842F6
:1008E0000AD20DA001F0F6FA204600F0D9F8284609
:1008F00000F0D6F800BFFEE7286820606560206839
:1009000010B12068446000E0346060680460B06842
:10091000401CB060BDE8F08157726F6E6720616C5B
:100920006C6F632128436F6E666C696374290D0ACE
:100930000000000070B50446256806A0A16801F01B
:10094000C9FA03E0284600F0ABF86D686068A84279
:10095000F8D170BD43757272656E74206C697374E2
:1009600028256C64293A0D0A0000000000BFFEE74C
:1009700000B587B00121880300F0C0F801210420F0
:1009800000F0BCF818208DF81B004FF40070ADF893
:10099000180003208DF81A0006A91D48FFF78FFEE6
:1009A00004208DF81B000002ADF8180006A91848B5
:1009B000FFF785FE4FF4165002900020ADF81400AA
:1009C0000C20ADF812000020ADF81000ADF80E00BC
:1009D000ADF80C0002A90F4800F0FCFA012240F229
:1009E00025510C4800F0D1FA25208DF80400012093
:1009F0008DF8070002208DF805008DF8060001A88B
:100A000000F00CF80121034800F07CFA07B000BDAB
:100A100000080140003801407047000070B5002117
:100A200000230F22C47804B3154C246804F4E06456
:100A3000C4F5E064210AC1F10403CA40447804FA11
:100A400003F184781440214309010E4C0678A15526
:100A5000047804F01F050124AC4005786D11AD0049
:100A600005F1E025C5F8004109E0047804F01F0510
:100A70000124AC40044D0678761145F8264070BD3F
:100A80000CED00E000E400E080E100E002490143F9
:100A9000024A1160704700000000FA050CED00E00A
:100AA00010B5044602A0D4E9021201F013FA10BDF9
:100AB00020202020737461727420617420252330FB
:100AC000387820616E6420656E642061742025236F
:100AD0003038780D0A0000007047000029B1064A3E
:100AE000D2690243044BDA6104E0034AD2698243CB
:100AF000014BDA61704700000010024029B1064A3C
:100B000092690243044B9A6104E0034A926982436A
:100B1000014B9A61704700000010024030B500217F
:100B20000022002400232D4D6D6805F00C0121B139
:100B3000042905D0082923D105E0294D056022E0CC
:100B4000274D05601FE0254D6D6805F47012234D9B
:100B50006D6805F48034022505EB92421CB9214DE5
:100B6000554305600BE01D4D6D6805F400351DB162
:100B70001C4D5543056002E0194D5543056002E0E8
:100B8000174D056000BF00BF144D6D6805F0F00102
:100B90000909154D6B5C0568DD4045600F4D6D68BA
:100BA00005F4E061090A104D6B5C4568DD40856025
:100BB0000A4D6D6805F46051C90A0B4D6B5C4568C0
:100BC000DD40C560054D6D6805F44041890B074D5A
:100BD0006B5CC568B5FBF3F5056130BD00100240E4
:100BE00000127A0000093D000000002010000020E3
:100BF00004490A680968491C024B1960024941F816
:100C0000220070471C00002000420020704710B5F1
:100C100000F002F810BD00000CB50020019000901B
:100C20003348006840F480303149086000BF3048E4
:100C3000006800F4003000900198401C019000987A
:100C400018B90198B0F5A06FF1D12948006800F4F7
:100C5000003010B10120009001E0002000900098C9
:100C6000012843D12348006840F010002149086062
:100C70000846006820F0030008600846006840F05D
:100C8000020008601A4840681949486008464068F0
:100C900048600846406840F4806048600846406804
:100CA00020F47C1048600846406840F4E810486032
:100CB0000846006840F08070086000BF0C4800687B
:100CC00000F000700028F9D00948406820F00300C7
:100CD000074948600846406840F00200486000BF8D
:100CE0000348406800F00C000828F9D10CBD000052
:100CF00000100240002002407047000010B5134869
:100D0000006840F001001149086008464068104939
:100D100008400E494860084600680E4908400B49E3
:100D200008600846006820F4802008600846406893
:100D300020F4FE0048604FF41F008860FFF767FF53
:100D40004FF000600449086010BD00000010024030
:100D50000000FFF8FFFFF6FE08ED00E010B50121EE
:100D6000880700F030F8E0B10E48006810B10128A3
:100D700012D108E0FFF754FD0A48006880F0010036
:100D80000849086008E0FFF741FD0648006880F068
:100D900001000449086000BF00BF0121880700F07E
:100DA00003F810BD14000020CA430282704721B12D
:100DB000028842F00102028004E002884FF6FE73CE
:100DC0001A400280704730B50246002000230024FC
:100DD000158A05EA0103958905EA010413B10CB1EE
:100DE000012000E0002030BD002202881D4B984207
:100DF0000ED01D4B98420BD0B0F1804F08D01B4B4A
:100E0000984205D01A4B984202D01A4B984204D10E
:100E10004FF68F731A404B881A43174B984207D0EE
:100E2000164B984204D04FF6FF431A40CB881A4322
:100E300002808B8883850B8803850A4B98420BD0F0
:100E4000094B984208D00E4B984205D00D4B984262
:100E500002D00D4B984201D10B7A03860123838285
:100E600070470000002C01400034014000040040A5
:100E700000080040000C004000100040001400403A
:100E800000400140004401400048014010B540F2DC
:100E90002551074800F04FF800B910BD044800F094
:100EA00005F90446E0B200F005F800BFF5E70000E0
:100EB0000038014010B5044600BF8021044800F00E
:100EC0002DF80028F9D02146014800F0F4F810BDB3
:100ED0000038014070B505462846FFF723F906465D
:100EE000002403E0285DFFF7E5FF641CB442F9DB52
:100EF00000BF4021024800F011F80028F9D070BD71
:100F00000038014021B1828942F40052828104E01C
:100F100082894DF6FF731A40828170470246002095
:100F2000B1F5007F00D100BF13880B400BB1012049
:100F300000E00020704770B5024600240023002521
:100F4000002040F66A16B14200D100BFC1F342153D
:100F500001F01F03012606FA03F3012D02D1968941
:100F6000334006E0022D02D1168A334001E0968A12
:100F700033400C12012606FA04F41688344013B1EB
:100F80000CB1012000E0002070BDF0B50346002444
:100F900000260025002040F66A17B94200D100BFA4
:100FA0001846C1F3421401F01F06012707FA06F59F
:100FB000012C01D10C3004E0022C01D1103000E0F2
:100FC00014301AB107682F43076002E00768AF4387
:100FD0000760F0BD2DE9F04786B005460E460024B7
:100FE000A24600BFA1460027B08900B100BF2F462E
:100FF0002C8A4CF6FF700440F08804432C82AC89A4
:101000004EF6F3100440B0883189084371890843D3
:101010000443AC81AC8A4FF6FF400440B0890443DE
:10102000AC8201A8FFF77AFD1F48874202D1DDF8A4
:1010300010A001E0DDF80CA0A88900F4004040B148
:101040000AEBCA0000EB0A1031684900B0FBF1F866
:1010500007E00AEBCA0000EB0A1031688900B0FB18
:10106000F1F86420B8FBF0F004012009642101FBD1
:101070001089A88900F4004040B1322000EBC9007B
:10108000B0FBF1F000F00700044308E0322000EB71
:1010900009106421B0FBF1F000F00F0004432C8133
:1010A00006B0BDE8F087000000380140014688889E
:1010B000C0F308007047C1F308028280704700BF88
:1010C000FEE700000FB4054B10B503A9044A0298CF
:1010D00000F0ECF810BC5DF814FB00001D1B0008CC
:1010E0002800002037B514460846064B6A462146BC
:1010F00000F0DCF804466946002000F06EFC204653
:101100003EBD0000DB19000802E008C8121F08C13C
:10111000002AFAD170477047002001E001C1121F78
:10112000002AFBD1704700002DE9FF5F82B000214B
:10113000DDE90430020DDDF840B0034318D044F679
:101140001050A2F2FF3242431514119801281FD00B
:10115000A5EB0B00401C5FEA000A4FF000064E4F63
:10116000DFF83891B046504615D5CAF1000413E0B7
:10117000119801244AA3012801D16FEA0B010298BA
:10118000119AC0E90031C0E9024206B0BDE8F09F03
:10119000CBF10000DFE704460021404A491842EB4A
:1011A0000450CDE9001012E0E00707D032463B467C
:1011B00040464946FFF7ABF88046894632463B46F3
:1011C00010461946FFF7A3F806460F466410002C98
:1011D000EAD1DDE90401DDE90023BAF1000F06DA06
:1011E000FFF795F842464B46FFF791F805E0FFF709
:1011F00000F942464B46FFF7FCF804460E46002233
:10120000284BFFF77DF903D84FF0FF30014607E088
:101210000022254B20463146FEF7D2FFFFF758F952
:10122000102409E0002C0ADB0A220023FEF797FFB6
:10123000039B30321A55641E50EA0102F2D1641C3D
:10124000039AC4F111031444119A012A03D0012214
:1012500008430DD10AE0084304D000204FF0110BE1
:10126000119072E7A3EB0B056D1E0DE05B4504DDED
:101270004FF0000205F1010504E003DA4FF000022F
:10128000A5F10105002AECD002981199C0E90231BC
:10129000C0E9004579E70000000014400000F03F7D
:1012A000300000000000F0430000E03F2DE9FF4F58
:1012B00095B09B468946064600250FE2252877D142
:1012C00000242746F84A0121059400E0044316F85B
:1012D000013F203B01FA03F01042F7D130782A2871
:1012E00011D06FF02F033078A0F13002092A16D800
:1012F000059A44F0020402EB820203EB420210441E
:10130000761C0590EFE759F8042B0592002A03DAC2
:10131000504244F40054059044F00204761C3078A6
:101320002E2816D116F8010F44F004042A280DD0F7
:101330006FF02F023078A0F13003092B09D807EBAA
:10134000870302EB4303C718761CF3E759F8047BC5
:10135000761C30786C280FD006DC4C2817D0682813
:101360000DD06A2814D104E0742810D07A280FD147
:101370000DE044F400140AE044F4801401E044F465
:1013800040147278824202D104F58014761C761CD7
:10139000307866280BD013DC582877D009DC002879
:1013A00075D04528F6D04628F4D047281AD19DE1BB
:1013B00018E0632835D0642879D0652812D195E1EA
:1013C000702873D008DC6728F1D069286FD06E28A8
:1013D0000DD06F2806D1B5E073282CD0752875D0B4
:1013E000782874D05A46179990476D1C75E1C4F35C
:1013F0000250022809D003280DD0D9F80010042883
:101400000DD00D6009F1040967E1D9F80010EA1761
:10141000C1E90052F6E7D9F800100D80F2E70D702F
:10142000F0E719F8041B8DF8001000208DF801007A
:10143000EA46012003E059F804AB4FF0FF306107A2
:101440004FF0000102D40DE008F101018846B942D5
:101450000FDA8045F8DB1AF808100029F4D108E00B
:1014600008F1010188468142FADB1AF808100029C8
:10147000F6D105985B46A0EB080721463846179A37
:1014800000F094FA284400EB080507E04DE029E15C
:101490000DE01AF8010B5A4617999047B8F1010868
:1014A000F7D25B4621463846179A13E142E00A22FA
:1014B0000092C4F302524FF0000A022A08D059F8F1
:1014C00004CB032A4FEAEC710AD00DE029E02AE0B0
:1014D00009F1070121F00702F2E802C1914609E093
:1014E0000FFA8CFC4FEAEC71042A03D14FFA8CFC02
:1014F0004FEAEC71002907DA0A460021DCF1000C02
:1015000061EB02012D2202E0220504D52B228DF889
:101510000420012203E0E20701D02022F7E79046F1
:1015200059E00A2102E010220DE010214FF0000ADC
:1015300000910BE010224FF0000A44F00404082749
:10154000009203E008224FF0000A0092C4F3025216
:10155000022A05D059F804CB0021032A08D009E05B
:1015600009F1070121F00702F2E802C1914605E006
:101570001FFA8CFC042A01D10CF0FF0C4FF000087C
:10158000220728D5702806D0009B83F0100353EA69
:101590000A0305D00EE040228DF80420012208E065
:1015A0005CEA010206D030228DF804208DF8050097
:1015B00002229046009B83F0080353EA0A030AD1F3
:1015C0005CEA010201D1620705D530228DF80420C2
:1015D0004FF001087F1E582804D034A003900EA8B5
:1015E00002900DE036A0F9E753466046009AFEF7F8
:1015F000B6FD84460398825C0298401E02900270F9
:101600005CEA0100F0D1029806A9081A00F1200A4C
:10161000600702D524F4803400E00127574502DD3D
:10162000A7EB0A0000E0002000EB0A0100900598FB
:101630004144401A0590E00306D45B462146179AC0
:10164000059800F0B3F90544002706E001A85A46C2
:10165000C05D179990476D1C7F1C4745F6DBE00382
:101660000CD55B462146179A059800F09FF9054472
:1016700004E030205A46179990476D1C0099481E87
:1016800000900029F5DC08E0029802995A4600789B
:10169000491C0291179990476D1CBAF10001AAF1FB
:1016A000010AF1DC65E10000092801003031323324
:1016B000343536373839616263646566000000008E
:1016C0003031323334353637383941424344454678
:1016D0000000000000F058F90544761C307800281E
:1016E0007FF4ECAD19B02846BDE8F08F620700D456
:1016F000062709F1070222F0070CFCE80223E14665
:1017000003F000485FEA080C02D00FF2702C0DE0E5
:101710005FEA045C02D50FF2682C07E05FEAC47C44
:1017200002D00FF2602C01E0AFF2700C4FF0FF38E6
:1017300023F00043CDF850C065280CD006DC4528C6
:1017400009D046281DD047283DD13DE0662818D055
:1017500067287ED138E00021112F01DB112000E045
:10176000781CCDE9000106A90EA8FFF7DDFCDDE934
:101770000F010E9A03910021009207F1010A0491D2
:101780004DE04FF000400097CDE9011006A90EA8EA
:10179000FFF7CAFCDDE90F0203920E9B11990022AC
:1017A000DDF80CA00093049211B9791C00EB010A3A
:1017B000B7EB0A0004D4C0F1FF3007F1010A04902E
:1017C000AAEB0700019044E0012F00DA0127002175
:1017D000112F01DD112000E03846CDE9000106A9F6
:1017E0000EA8FFF7A1FCDDE90F010E9A039100217D
:1017F00004910092BA4621070CD40399514500DAAE
:101800008A46BAF1010F05DD009AAAF10101515C87
:10181000302908D0B84202DA10F1040F06DA0121AB
:10182000CDE9011015E0AAF10101E9E7002805DC86
:10183000049901440491AAEB000102E0411C5145C6
:1018400000DD8A460499401A401C01904FF0004088
:101850000290200704D40198504501DBCDF80480A4
:1018600000208DF84F0002980DF14F07B0F1004FA6
:1018700025D02B200E9002984FF0020800280CDA99
:10188000404202902D200E9007E00A210298FEF7B8
:1018900050FC3031029007F8011DB8F10001A8F1A9
:1018A0000108F2DC02980028EFD1791E0E9808702A
:1018B000307800F0200040F0450007F8020D12A833
:1018C000C01B00F107081498007800B1012000EB5C
:1018D0000A01019801EBE07105984144401A401E4D
:1018E0000590E00306D45B462146179A059800F060
:1018F0005DF805441498007818B15A461799904736
:101900006D1CE00324D55B462146179A059800F02C
:101910004DF805441CE00498002807DBDDE90301CD
:10192000884203DD0098405C179901E01799302048
:101930005A469047049805F10105401C049001980F
:10194000401E019004D12E205A46179990476D1CD5
:10195000BAF10001AAF1010ADDDC05E017F8010B7C
:101960005A46179990476D1CB8F10001A8F101087B
:10197000F4DC5B462146179A0598ABE62D00000083
:101980002B000000200000002DE9F0410446002556
:101990001E461746880404D405E039462020B04787
:1019A0006D1C641EF9D52846BDE8F0812DE9F04193
:1019B000044600251E469046C80301D5302700E0A6
:1019C0002027880404D505E041463846B0476D1C01
:1019D000641EF9D52846BDE8F0810A68531C0B60E7
:1019E000107070470146886938B18869406988423B
:1019F00001D1012070470020FCE70020FAE70246F1
:101A000050684B68984207D050684B68984201DD97
:101A1000012070470020FCE710680B68984201D94C
:101A20000120F6E70020F4E708B51D208DF800003E
:101A300001208DF8030002208DF801008DF80200CE
:101A40006846FEF7EBFF08BD3EB5044601210220C3
:101A5000FFF744F804EB84000121C1EB400080B2A1
:101A6000ADF8040041F61F40ADF800000020ADF8CD
:101A70000200ADF8060069460D48FFF7B5F90020F1
:101A80000B491031088001210948FFF790F900BF88
:101A900007481030008800F001000028F8D000212D
:101AA0000348FFF784F900200149243108803EBD36
:101AB00000040040024650684B68984205D1106807
:101AC0000B68984201D1012070470020FCE700001C
:101AD00070B505461048046812E021462846FFF715
:101AE0008EFF18B1606908B1646909E02146284693
:101AF000FFF785FF18B9206908B1246900E005E007
:101B000029462046FFF7D6FF0028E6D000BF002177
:101B1000204600F067FA70BD1800002070B504463A
:101B20000D46E0B2FFF7C6F9204670BD10B500289B
:101B300021D0114B0022001F196803E0814203D815
:101B40000A4649680029F9D152B11368841A9C42A7
:101B500004D1006818441060104602E0506000E0B4
:101B6000186039B102680B1A934203D10B681A440A
:101B700002604968416010BD2C0000204FF4A06055
:101B8000FEF784FFFEF72CFEFEF7F2FEFFF74CFF98
:101B9000FEF746FE00F05EF84FF4605107A0FFF735
:101BA00091FA4FF4E0710AA0FFF78CFA4FF46051FC
:101BB0000C4800F0CFFA00BFFEE700004D454D4253
:101BC00041534553495A45203D2025640D0A0000E4
:101BD0004D454D54424C53495A45203D2025640DF6
:101BE0000A00000000010020F0B50B30154D20F078
:101BF00007010024144A0FE003688B420BD38B4289
:101C000005D95E1A43184768C3E9006700E04368D6
:101C1000136002C004E0021D10680028ECD12046C9
:101C2000002802D1286808B10020F0BD064A074804
:101C30001060074A121A22F00702C0E900240120AE
:101C40002860D7E7300000202C00002084460020C8
:101C5000804800201CB500F0EDF94FF4E0700190D1
:101C60000A480090684600F0F7F9002404E00020DC
:101C7000074941F82400641CB4F5E07FF7DB4FF41A
:101C8000E0700349C1F8FC0608601CBD000100209B
:101C90000039002010B50446A0B2FFF7D5FE10BDF4
:101CA0002DE9FF470746002003905F49781AC117C6
:101CB00000EBD1614C115D4850F82400002801DB95
:101CC000BDE8FF87594850F824004542039828444E
:101CD000039000216019401E544A42F8201010461B
:101CE00040F8241088468946002C07DD601E114606
:101CF00051F82000002801DD4FF001086019B0F50F
:101D0000E07F07DA6019494951F82000002801DD19
:101D10004FF001090026B246B8F1010F0AD1601E4A
:101D2000424951F820600021404A42F820100398AF
:101D300030440390B9F1010F0BD160193B4951F8C0
:101D400020A000206119394A42F82100039850442C
:101D50000390B8F1000F0DD1B9F1000F0AD102972D
:101D60006019401E314A039942F82010104640F88D
:101D7000241053E0B8F1010F15D1B9F1000F12D1C1
:101D8000A7EB461002906019401E284A039942F8BA
:101D90002010A01B42F8201002980090019668467F
:101DA00000F094F93AE0B8F1000F16D1B9F1010F43
:101DB00013D1029760195044401E1C4A039942F8FF
:101DC0002010104640F8241007EB45100090CDF885
:101DD00004A0684600F07AF920E0B8F1010F1DD1A7
:101DE000B9F1010F1AD1A7EB4610029060195044C7
:101DF000401E0E4A039942F82010A01B42F8201002
:101E0000029800900196684600F060F907EB4510D3
:101E10000090CDF804A0684600F058F902A800F040
:101E20001BF900BF4CE70000000100200039002032
:101E30002DE9FF4106461EB9002004B0BDE8F0813F
:101E4000740906F01F0000B1641C03940020029086
:101E500002A800F065F907467868B0F13F3F01D16C
:101E60000020EAE7D7E90001CDE90001DDF80080B4
:101E7000384600F02BF9154A0099881AC11700EB73
:101E8000D1614D1161422819401E114A42F82010BB
:101E9000104640F825100198A04214DD0198001B5F
:101EA0000190009800EB44100090684600F0D4F8D0
:101EB0002919074A019842F8210028190199084474
:101EC000401E42F820104046B7E700000001002005
:101ED000003900200FB438B50020009005A800900C
:101EE0000648009A0499FFF7FDF804462146034886
:101EF00000F014F8204638BC5DF814FB8042002046
:101F00000448006804494843401C024908600846E8
:101F100000687047240000200584080870B5044656
:101F20000E4625462846FEF7D5FF70BD70B505461E
:101F30002846FFF7CDFD094801682846FFF75FFDF9
:101F400010B10648006870BD04480068046900E0EC
:101F5000646960690028FBD12046F4E7180000207E
:101F60008168026912B10269D2681144426912B1F2
:101F70004269D2681144C16070472DE9F0410446BE
:101F8000A5690DB1A86900E0002006462046FFF7CC
:101F900029FD8046B8F1000F02D167692F6101E089
:101FA00027696F6107B1BD612846FFF71BFD20B1AE
:101FB0001EB1706908B1746103E016B1306900B1F7
:101FC0003461A661B8F1000F01D1656100E02561BF
:101FD000AC612846FFF7C4FF2046FFF7C1FFBDE80C
:101FE000F08100002DE9F04104460D4617E0A66996
:101FF000B769AF420FD02046FFF7F4FC8046304669
:10200000FFF7F0FC804503D13046FFF7B6FF02E052
:102010002046FFF7B2FF2046FFF7AFFF00BFA069E1
:10202000A842E4D10DB902480460BDE8F081000087
:10203000180000201CB54FF0FF30019000200090E8
:10204000684600F009F84FF03F3001900020009002
:10205000684600F001F81CBD70B506461A480468D1
:10206000002508E0254621463046FFF7C8FC08B1A8
:10207000646900E024692CB131462046FFF71AFD5F
:102080000028EFD01CB1A068401CA06017E01C2005
:10209000FFF7AAFD04463DB129463046FFF7AFFCE5
:1020A00008B16C6100E02C61A561D6E90001C4E9CA
:1020B00000010120A060E06000206061206100213B
:1020C0002046FFF78FFF70BD180000202DE9F0417A
:1020D00006463046FFF72AFF0746304600F020F854
:1020E000044600213846FFF77DFF39462046FFF7BA
:1020F00079FF2569A868012807DDA868401EA86047
:1021000000212846FFF76EFF08E02069FFF70EFD6B
:102110000020206100212046FFF764FFBDE8F08128
:1021200070B505462846FFF7D3FC294608480068E5
:10213000FFF765FC10B10648006870BD04480068F0
:10214000446900E0246920690028FBD12046F4E7B7
:10215000180000200EB506460F4630A0FFF7BAFE65
:102160006846FEF787FB57E00298042800D221E07A
:102170000298102800D906E0FFF7C2FE00F04000E8
:1021800000B117E000BFFFF7BBFE0299B0FBF1F210
:1021900001FB120529466846FEF74CFB0446204623
:1021A000FFF77EFD21A0FFF795FE214621A0FFF756
:1021B00091FE2AE0FFF7A4FE0A21B0FBF1F201FB39
:1021C0001201012000FA01F42046FFF731FE054616
:1021D00025B1224629466846FEF75CFB1AA0FFF7A8
:1021E00079FE21461BA0FFF775FE29461EA0FFF7CA
:1021F00071FEB54203D32819F119884204D91FA0F2
:10220000FFF768FE00BFFEE700BF6846FEF792FBDF
:102210004FF4FA60FFF73EFDA6E7000074657374A3
:10222000207374617274210D0A0000006672656586
:102230000D0A000020202020616464723A202523CA
:102240003038780D0A0000006D616C6C6F630D0A08
:1022500000000000202020206C656E6774683A2022
:1022600025233038780D0A00202020206164647214
:102270003A20202025233038780D0A0057726F6EDF
:102280006720616C6C6F6321284F7574206F662026
:1022900072616E67652E290D0A000000BC220008DD
:1022A000000000203400000008110008F02200089F
:1022B000340000204C4C0000181100080000000001
:1022C00001020304010203040607080902040608C8
:1022D00000000000000000000000000000000000FE
:1022E00091E5250100000000000000000000000052
:04000005080000ED02
:00000001FF
