:020000040800F2
:100000000804002001010008C90200086D02000870
:10001000C502000849010008B504000800000000FE
:10002000000000000000000000000000ED020008D9
:100030004D01000800000000CB020008D9030008B1
:100040001B0100081B0100081B0100081B01000820
:100050001B0100081B0100081B0100081B01000810
:100060001B0100081B0100081B0100081B01000800
:100070001B0100081B0100081B0100081B010008F0
:100080001B0100081B0100081B0100081B010008E0
:100090001B0100081B0100081B0100081B010008D0
:1000A0001B0100081B0100081B0100081B010008C0
:1000B0001B0100083D0400081B0100081B0100088B
:1000C0001B0100081B0100081B0100081B010008A0
:1000D0001B0100081B0100081B0100081B01000890
:1000E0001B0100081B0100081B010008DFF80CD0F1
:1000F00000F018F80048004729050008080400200F
:100100000648804706480047FEE7FEE7FEE7FEE7B1
:10011000FEE7FEE7FEE7FEE7FEE7FEE7DD03000899
:10012000ED000008064C074D06E0E06840F00103D2
:1001300094E8070098471034AC42F6D3FFF7DAFF93
:100140005C0500087C05000800BFFEE770472DE94C
:10015000F04102460025002600200023002400274D
:1001600091F803C00CF00F0591F803C00CF0100CCF
:10017000BCF1000F03D091F802C04CEA050591F8DC
:1001800000C0BCF1000F31D0146800202BE04FF00C
:10019000010C0CFA00F3B1F800C00CEA03069E4211
:1001A00020D183004FF00F0C0CFA03F7BC4305FA83
:1001B00003FC4CEA040491F803C0BCF1280F06D1FB
:1001C0004FF0010C0CFA00FCC2F814C00AE091F8E0
:1001D00003C0BCF1480F05D14FF0010C0CFA00FC34
:1001E000C2F810C0401C0828D1D31460B1F800C078
:1001F000BCF1FF0F34DD546800202EE000F1080C44
:100200004FF0010808FA0CF3B1F800C00CEA03063D
:100210009E4221D183004FF00F0C0CFA03F7BC4330
:1002200005FA03FC4CEA040491F803C0BCF1280F62
:1002300005D100F1080C08FA0CF8C2F8148091F806
:1002400003C0BCF1480F07D100F1080C4FF00108C2
:1002500008FA0CF8C2F81080401C0828CED354606D
:10026000BDE8F081416170470161704700BFFEE762
:1002700008B50121102000F029F84FF40050ADF826
:10028000000010208DF8030003208DF8020069465D
:100290000148FFF75CFF08BD0010014010B54FF4A6
:1002A00000510248FFF7E0FF10BD000000100140C0
:1002B00010B54FF400510248FFF7D4FF10BD000005
:1002C0000010014000BFFEE77047704729B1064AA1
:1002D00092690243044B9A6104E0034A92698243A3
:1002E000014B9A617047000000100240704710B542
:1002F00000F002F810BD00000CB500200190009045
:100300003348006840F480303149086000BF30480D
:10031000006800F4003000900198401C01900098A3
:1003200018B90198B0F5A06FF1D12948006800F420
:10033000003010B10120009001E0002000900098F2
:10034000012843D12348006840F01000214908608B
:100350000846006820F0030008600846006840F086
:10036000020008601A484068194948600846406819
:1003700048600846406840F480604860084640682D
:1003800020F47C1048600846406840F4E81048605B
:100390000846006840F08070086000BF0C480068A4
:1003A00000F000700028F9D00948406820F00300F0
:1003B000074948600846406840F00200486000BFB6
:1003C0000348406800F00C000828F9D10CBD00007B
:1003D00000100240002002407047000010B5134892
:1003E000006840F001001149086008464068104963
:1003F00008400E494860084600680E4908400B490D
:1004000008600846006820F48020086008464068BC
:1004100020F4FE0048604FF41F008860FFF767FF7C
:100420004FF000600449086010BD00000010024059
:100430000000FFF8FFFFF6FE08ED00E010B5012117
:10044000104800F026F8E0B10F48006810B101280C
:1004500012D108E0FFF72CFF0B48006880F0010084
:100460000949086008E0FFF719FF0748006880F0B5
:1004700001000549086000BF00BF0121014800F0EC
:1004800005F810BD0004004000000020CA430282AD
:10049000704730B50246002000230024158A05EA83
:1004A0000103958905EA010413B10CB1012000E0B4
:1004B000002030BD00BFFEE702E008C8121F08C1DF
:1004C000002AFAD170477047002001E001C1121FD5
:1004D000002AFBD170474FF0E020006920F00400B3
:1004E0004FF0E02108617047014642F228324A434A
:1004F0004FF0E0235A6100229A611A46126942F0D5
:1005000001021A6100BF4FF0E0221069020C002ABC
:10051000F9D04FF0E022126922F001024FF0E023FF
:100520001A6100229A617047FFF7A2FEFFF7D3FF1E
:100530000EE00020074908604FF4FA70FFF7D4FF7F
:1005400001200549C1F8B4014FF4FA70FFF7CCFF60
:10055000EFE70000B4012242000022427C050008BF
:100560000000002004000000B80400088005000816
:100570000400002004040000C8040008000000007B
:04000005080000ED02
:00000001FF
