:020000040800F2
:1000000000040020450100084D0100084F010008D0
:1000100051010008530100085501000800000000CC
:100020000000000000000000000000005701000870
:1000300059010008000000005B0100085D01000894
:100040005F0100085F0100085F0100085F01000810
:100050005F0100085F0100085F0100085F01000800
:100060005F0100085F0100085F0100085F010008F0
:100070005F0100085F0100085F0100085F010008E0
:100080005F0100085F0100085F0100085F010008D0
:100090005F0100085F0100085F0100085F010008C0
:1000A0005F0100085F0100085F0100085F010008B0
:1000B0005F0100085F0100085F0100085F010008A0
:1000C0005F0100085F0100085F0100085F01000890
:1000D0005F0100085F0100085F0100085F01000880
:1000E0005F0100085F0100085F0100085F01000870
:1000F0005F0100085F0100085F0100085F01000860
:100100005F0100085F0100085F0100085F0100084F
:100110005F0100085F0100085F0100085F0100083F
:100120005F0100085F0100085F0100085F0100082F
:10013000DFF80CD000F018F800480047AD010008C7
:10014000000400200648804706480047FEE7FEE717
:10015000FEE7FEE7FEE7FEE7FEE7FEE7FEE7FEE777
:100160008D01000831010008064C074D06E0E068EB
:1001700040F0010394E8070098471034AC42F6D3EE
:10018000FFF7DAFFE4010008F4010008704702E01D
:1001900008C8121F08C1002AFAD170477047002012
:1001A00001E001C1121F002AFBD170470B48806992
:1001B00040F01000094988610948406820F4700047
:1001C000074948600846406840F480104860084687
:1001D000C06840F40050C86000BFFEE70010024055
:1001E00000100140F401000800000020000400009D
:0401F0009E01000864
:0400000508000131BD
:00000001FF
